:101C9500576F72646C65202000436F6E67726174C4
:101CA500756C6174696F6E202000496E76616C6990
:101CB5006420776F72642020202000596F75206C96
:101CC5006F7365212000486973746F727900202055
:101CD500202020200030002020202020202020202F
:0B1CE5002020202020200020202000D4
:101E1E00E50A60047B4E80027B417D087F01121F24
:101E2E00B27B2D7D097F01121FB2E50A60047B5A39
:0B1E3E0080027B4D7D0A7F01021FB275
:101D3F00E50B6401600BE50B64026005E50BB40372
:101D4F0004AF098004E50904FFAB07EBC39401500E
:101D5F00027B01EBD3940640027B067D0E7F0112BE
:101D6F001FBC7B2F7D0F7F01121FB27B067D107F63
:041D7F0001021FBC82
:101F5A007A1C7B957D017F01121EE5121E1E021D51
:011F6A003F37
:10163D00E50BB402067A1C7B9E8009E50BB4040B06
:10164D007A1C7BAF7D017F02021EE5E50B64037002
:10165D00317A1C7BC07D017F02121EE5E4F523E586
:10166D0023240BFD74412523F8E6FB7F02121FB2E4
:10167D000523E523C3940540E67B207D107F020200
:10168D001FB2E4F523E50B64016007E523C3950E56
:10169D00500DE52304FD74822523F8E6FB8006E555
:1016AD002304FD7B5F7F02121FB20523E523C39444
:1016BD000540D27B207D067F02121FB2E50B64012F
:1016CD007038F523E50975F005A424412523F8E6C6
:1016DD00FBE5232407FD7F02121FB20523E523C37B
:1016ED00940540E075230C7B20AD237F02121FB2C1
:1016FD000523E523D3941040EE22E50D6003FB8016
:10170D00027B5F7D077F02121FB27523087B20AD20
:0F171D00237F02121FB20523E523D3941040EE61
:01172C00229A
:101939007A1C7BCB7D017F01121EE57A1C7BD37D4E
:10194900087F01121EE5E50970137A1C7BDA7D0117
:101959007F02121EE57A1C7BDC7D028069E510049A
:10196900FB7D017F02121FBC7B207D027F02121FBB
:10197900B2E4F523E51075F005A424642523F8E6FF
:10198900FBE5232403FD7F02121FB20523E523C3D0
:10199900940540E07B207D087F02121FB2E4F52305
:1019A900E51075F005A424462523F8E6FBE5232474
:1019B90009FD7F02121FB20523E523C3940540E008
:0B19C9007A1C7BEC7D0E7F02121EE5F5
:0119D40022F0
:101E4900AF8CEFFEAD8AEDAC067807C333CE33CE47
:101E5900D8F96205EE6204ECC3136205EDFEEE6289
:091E6900047F41121F1D750801E0
:011E7200224D
:021AF400A90740
:101AF600E4FFE92FF8E6FE74412FF8EE6670047EE7
:101B06004780027E52ED2FF8A6060FBF05E4E4FFDC
:101B1600ED2FF8E66447604CE4F523FEED2EF8E67B
:101B26006447600FE92FF8E6FC74412EF8E6B50429
:101B36000205230EBE05E5E4F524FEEEC39F50180C
:101B4600ED2EF8E6B4590EE92FF8E6FCE92EF8E694
:101B5600B5040205240E80E3E524C395235005ED64
:0A1B66002FF876590FEF640570A602
:011B70002252
:101B71007F82121BD4EF7005750B048052E4FF7451
:101B8100822FF8E6FEE50975F005A424642FF8A676
:101B9100060FBF05EAE50975F005A42464FFE50910
:101BA10075F005A42446FD121AF4750F01E4FFE552
:101BB1000975F005A424462FF8E664476005E4F5AD
:101BC1000F80040FBF05E80509750B01121D3F12B7
:021BD100163DBF
:011BD30022EF
:101EC200E50F6005750B028016E509C3940640050F
:101ED200750B03800AE4F50EF50DF50B121D3F128A
:031EE200163D2288
:10172D008F22E522C39401402AE522D3940D502344
:10173D00E50B60030217E7E50EC39405400302179E
:10174D00E7E50A75F00DA42441FFE522142FF50DF0
:10175D00FB8078E522B40E0FE50A70047F0180024C
:10176D007F008F0A021E1EE522640F7020E50B70AC
:10177D0069E50D6007E4F50D7B5F804FE50ED394B1
:10178D00004057150EE50E04FD7B5F8040E5226499
:10179D00107047E50BB40103021EC2E50BB4040A39
:1017AD00E4F50EF50DF50B02163DE50B702CE50D70
:1017BD0060207482250EF8A60DE50E04FDAB0D7F9D
:1017CD0002121FB2050EE4F50D7B5F7D077F02024D
:0B17DD001FB2E50EB40503121B7122C1
:101DEE008F22E522B4120BE510D39400402115107A
:101DFE00801AE522B41318E5102401FFE433FEC364
:101E0E00EF95097480F86E98500505101219392255
:101F0700E50C7008750C01F510021939E4F50C128F
:061F17001F5A12163D22C4
:101C3600121F8BE58954F04401F589E4F58CF58A89
:101C4600D28CF50EF50DF50AF50CF510F509F50B28
:101C5600F50FF5087F64121F9A121F33121F5A12CE
:101C6600163D121CF08F21E52160F7E5087003127E
:101C76001E49E521B41105121F0780E6E50CB401E3
:0F1C860007AF21121DEE80DAAF2112172D80D388
:091FA800007F027EC7DEFEDFFCB3
:011FB100220D
:0E1F9A00AD07AF051DEF6005121FA880F522F0
:101F6B00C2A6C2A58F80D2A7121FA8C2A7021FA804
:101F7B00D2A6C2A58F80D2A7121FA8C2A7021FA8E4
:101F33007F38121F6B7F0C121F6B7F06121F6B7F84
:041F430001021F6B0D
:101F47008D27E527BF0103148002243F4480FF1239
:031F57001F6B22DB
:0A1FB2008B24121F47AF24021F7B8F
:041EE5008A248B259B
:101EE900121F47E4F526E5252526F582E43524F574
:0D1EF90083E493FF6007121F7B052680E93C
:011F060022B8
:071FBC00EB2430FB021FB211
:031FC30001110009
:0F1F8B007590FFD2B0D2B1D2B2D2B3E4F5112229
:101D8300E4F526A2009202F525E525C39524501516
:101D9300121FA8A200300201B350060526A200922A
:101DA30002052580E4E526700BA200300101B34053
:061DB300037F01227F0006
:011DB9002207
:101E73008F23E523B41104A2B08012E523B4120426
:101E8300A2B1800920B304A2B38002A2B29200C21D
:081E93000175241E121D8322BB
:101E9B008F23E523B41104A2B08011E523B41204FF
:101EAB00A2B1800820B3037F0022A2B29200D2011C
:071EBB00752414121D83229F
:10189600E4FF20B0037F112220B1037F122220B281
:1018A600037F132220B3037F13227590FFC2932078
:1018B60097047F0180132096047F05800C209504F1
:1018C6007F0980052094027F0DEF701F7590FFC27F
:1018D600922097047F0280132096047F06800C20B6
:1018E60095047F0A80052094027F0EEF701F759085
:1018F600FFC2912097047F0380132096047F078000
:101906000C2095047F0B80052094027F0FEF701F3B
:101916007590FFC2902097047F0480132096047F61
:1019260008800C2095047F0C80052094027F10759A
:0219360090FF20
:01193800228C
:101CF0001218968F22E5227017E511C39411400A3D
:101D0000AF11121E9BEF60058000E4F5117F0022E9
:101D1000E522B511037F00227F0A121F9A1218963E
:101D2000EF652260037F0022E522C39411400AAFD1
:0E1D300022121E73EF7002FF22852211AF22D5
:011D3E002282
:10000300006BBB0B9F0A818329E312AA6E828B7458
:10001300A5609618C25BC36B84935385728F259139
:10002300655383318C4682028F40028402BE73C6BD
:1000330033DD23068129813081F273CD711481E48C
:100043006281903683BC51BF658135019B098494DD
:100053001A834B8116A33FA67C837D1083C47183CF
:10006300022A9B7E8150823898554C83EF58B47C8A
:10007300A11782BE5D14816A812B9220826F937FC8
:100083009D418231815A82D0748219C81781199D8A
:100093001F82B1307881510A9063079544141B8104
:1000A3006B9F0882419E6A82BF1F9B6F10983E829E
:1000B3002F950B810285E12645BD7497215B87311E
:1000C300884186D54D04811D48129147042B3B82FC
:1000D3006E91672F81340829A05E9C3E818F6982CF
:1000E300AD05820A913704953D4981329D5D831A9E
:1000F300333E82CD72832CB922AD0281664468827D
:100103005082AC498218810581478F7A9740A102BA
:10011300590A9C028268838C0985EB069C0481360C
:10012300970083E409B62F8805AE2683B823DA182F
:1001330086C4039A7C82993724816D9053835A93A2
:100143005333814A9F589E0E83943385F503BA2017
:10015300813F8748888640838B3C81CB65CD669AF7
:1001630068B25D8259839D5584DC626D81FA35AD39
:1001730040B95F82E204238F4F873CA66185708379
:10018300EF5988629F5B8B0683CC64867811826704
:10019300A33E986C82C20892308260B40A82DD6505
:1001A300CB3A833D8E4C82B20F20812F910F835126
:1001B300B3729E5682ED078A7C8DFF29BE2EED0415
:1001C30082AF75C96485EA5E1A820310810140908B
:1001D3007D629508A251313282D074953901917BA9
:1001E300815F869226CB338A7C923383B874106DF9
:1001F300B77E8ADD1A8912817D956B8763880986AC
:100203008A0582709B09898B4D980489A76981CDE2
:100213005585CC0F979661869B77994C8FC00A843E
:10022300F13C9F10840B8DB268BC6B95788A218555
:100233004E83BD74203F9B3DA246AD3E83D65A9F5D
:1002430072AE5A85D256C27D92318D3B823185245E
:10025300895A85C569B82B86825991329117A75E51
:100263008317844B82669A17825F83A6288E57C8AA
:10027300748306870183E20AA63086807EB4758282
:10028300759126826E8842820A850C731D830386CC
:1002930089289E5A86BA2484A01C916383CA7B8BC7
:1002A30059869E15A632AF61920E86A54588822196
:1002B30083A208C97485E33484AD05828A6B82A75F
:1002C3006081845482B67C848C589921896F8D55C2
:1002D300867D83C071830DC379A07482B71EC876EF
:1002E3008126BE149268A743A75CA4278293228128
:1002F30025790F810D83C50B885CB644886C82BF5A
:100303005D91620614816A2982299D3B811A1B83B0
:100313008B3E872B982D9BAA5994593D82778699BA
:100323005B814D9C2E8F2187762B3A83DF672BB918
:100333003D848753844BCE4C85CF048122844193E3
:100343006DCA228132811D91298C8C2291588D0A8C
:1003530082338878A44E81AA6A811C149414B55000
:100363008D2C82801A955E915F82AE1721134E34D5
:100373000605923E04812E937C8141779C498241FC
:100383003F0F4E2EDC089B21884A954D81E440BFE8
:1003930030A155916182229249E05F81240E935EE0
:1003A300950981539D6BBF309312FA2BB4008142A0
:1003B30082539F048E6F81209C1B8306915C618115
:1003C3003E2C10A37A8F642D814581A53682B32CF0
:1003D30019684D78259128010167945B816B9D6DA8
:1003E300816434194F080C8D798E4B2821962BA8E4
:1003F3000FA755885781D75C0268966DA03D83DFB0
:1004030031AE17AD1D83C26190178833AF2782D6F3
:100413002894155B81021A91762F816B04619F7377
:100423008D00128204CD1350C52D85D5098C1DBDB9
:1004330069964A8554688A180682A71F061481099B
:1004430002817E914895081320BF30817826810B65
:100453000E84EB5B832F91FD0B837B9C34B86E8101
:10046300FC5E8F6E83A550889E7D889D0ACD1C827D
:100473006D85E87598688CE759C029816D3E83EDD9
:100483005883841E824B920D816781509E0881366A
:10049300CE46D179869246689B608131060F0E8ED7
:1004A300183482DD659E3E811AB4E666811D0044E0
:1004B300E6831A1A8232817F9F56827990058F5381
:1004C300827BB501B162A23F8D1F598960882B9D44
:1004D3000681798D3E875292738202936F890982D6
:1004E3007B2509CC4F81945D91439F198114BE27CD
:1004F30068A8503690168F545081880FCD74AF364C
:10050300A10F82DA2A8A5681175F8D7C8267058D57
:10051300621B815C811A963A68A7698128823890A8
:100523001F933530823C20A318149B56BF3F891D6F
:100533008A2E8E498205810F81639A5C588A51F60F
:100543002BD2258629984497218A0581B40F8A489E
:100553008239824093318265922382128A038120F9
:100563008C2C826A851B8617AE57982A058F5D13DC
:10057300A93A6201F546210C9930B474059222A47C
:1005830063069E50A35997029150E05E8178C82577
:10059300E753826D0182D245A2388640936D419420
:1005A3004785328137208803554E4A1E941A768137
:1005B3003C815D600F61028215816D3F400E813188
:1005C300810D8C4C8C6283A4200681641A6834915B
:1005D3004B5F817E34833B8354688C258D4F811917
:1005E3004E0E81508703822F9321825723822A85BF
:1005F3001C83138735951083AB6885139205930B82
:10060300854A811089380A86368D6B25873D826637
:100613003F830C82B61B07628150900C0958816A94
:10062300950215810A219B64811B5A4D2381569C97
:1006330003010D815E56120E82B234199F729A1A0B
:10064300815085581901062A82708136068164819A
:10065300511906811C8A6154816B854674817386A6
:100663000C7F8919813D836D0182A17A811B3581BC
:10067300530B1A47029132817A923C0D8238060E4F
:10068300749B7D3B811D811407027D9E48810D82F1
:10069300B3748720842E8A42853E6E99327C140679
:1006A3008606827296322E2E832B0F548411833743
:1006B3000E9408832583DF69AB0481B25927850033
:1006C300812C823C8214158F6B068D0F877B865A93
:1006D30083670382228217825F0609884883228602
:1006E300404D0B0F012F82483481788278822B0191
:1006F300830C834683766183B8298C25AC3B048CB9
:100703001882D42A0181211F110D3325101392223F
:100713002281328120916C10815004161C40319C3F
:100723004D812327811025019E61156B2BAC4B8FC7
:1007330004A52695098A7F8B2F82AB708209110449
:100743007F086B90558102822F942404099C7D823B
:100753004C811F260B9B5E122D0F814D1182B350CE
:10076300845E840006508332950B87138D3A812B68
:10077300811C8325011F3866832721768568866659
:10078300867B6E07816A2E857A12876B8167830F5A
:100793000605851D8C05829B0E69417115810A0C26
:1007A300342147900C520F070581454E0F4D0167C9
:1007B30091002D0E01814D811C9B7F348218140CF6
:1007C300227F379B5C81670E8120944282A01D5853
:1007D3009452A5458F6289607358811C54148762B3
:1007E30083C53D864DB93C81FA1C8E5088788204BE
:1007F30092721F0F830687330F831A837583BB1B84
:100803000183048152821D0E0D81140D817E6707C1
:100813004E8756853D901C825D8F543885178267BD
:10082300817C896F7687058B0F820A82598765835E
:10083300B60988728116945D9B078524836731040A
:10084300068442903A8446048150834983410A874F
:100853003B8B238E1685BB28842E148F6C81048AD0
:10086300688F44068A641813811E845582588B2A24
:100873008F2D8A0B0D8171066882A523482B810277
:10088300813D07904595780E1CA026462D21041D19
:100893004E639C3D2577933F813D82A6784806842D
:1008A30002AB5C853E4806823E82289970816A8C41
:1008B3006181A620937A0882A807828629BF2A0726
:1008C3008523F0650CF659EF5B8A155381B92682AF
:1008D300917782D67081A049E02284348D316D8571
:1008E3004D8E6183209E709D20854C9B1584340E14
:1008F3008517FE3B90108217845AB11C9A308E6480
:1009030081EB0B843381A571A151917F947D9F76F7
:1009130092179008FB5F8605C97859812CC228FB82
:1009230068AD18AA15A11981C9011988718D22937F
:1009330065815EA16F9714845ECA1F81ED1E836D6E
:100943000F018305820F0F9B6A35884E866989469E
:10095300813C925E8212813686538357248370834F
:10096300BC4A1B866C8B1D81509409913C84678122
:100973005D962683478701814882478C4B83B62C3B
:100983008245860089037DA2150E01018135061477
:10099300068125870E251995020F815084288232FE
:1009A300971F0E018E70CD3781C559702D06271400
:1009B30020206220224E910095103B01815E0D683C
:1009C3009C1E2B82314B2C33022E059C114C35344B
:1009D3001C047F179217829E6F880396398C7B8D38
:1009E300055E38208C12820481508D5481080A815F
:1009F300208128140EA161829D7A94200E94285A96
:100A03000F812F8135299C0F70812781120E544548
:100A130082D950842E92589C46850A447895715504
:100A2300853EA63285B4209564911C935301813E83
:100A3300816382379A00821E5482328203830D3A85
:100A4300814582298109864D8925813D836783A359
:100A53006F890E8A52813CA90083665A816A429348
:100A63005A838D55CB6F8D62A33885528B4A890C7F
:100A730006813F92140182AC5C8203698150900E1F
:100A830001955582139D060B825A6E409C1D973229
:100A930081943EC859BF2481508E229A568E088174
:100AA3004288157681598332061A1A814A748D3425
:100AB3008D168256821D82AF176946026D4003561A
:100AC3000F4854906D0709963E131405359C5B81BE
:100AD30050811B1281110B21079B7D14815E82B310
:100AE30065A81F0181368C4F817B83168228903A3B
:100AF300904A0A84951A81D02E9D06068E4604815B
:100B0300768702064894480E822A3D853B14815914
:100B1300300E01870F810D8420844C8E4983A109F7
:100B230006826629318C668634867A8F4D8D6C8178
:100B3300318768831A916A824D83D5218408903A5C
:100B43009B1C0689328260895C0A88158A1885D6BF
:100B53004682199A0F8E228C651A852301065485C5
:100B630066852483790F8A20821206863A835A8502
:100B73004377824B068511814A85C67EBB2D813A18
:100B8300810D81458161967483408150817383D344
:100B93005F0E842EA8438F70848161229F64D16E7F
:100BA30097768D6DC60482D775859B64E836C65FDC
:100BB3008143BA2C8551863A820A5104866934826C
:100BC30050872A974D638B308D00916806824FE7DB
:100BD3005A82D944C870F74DDA378B4482C84084AF
:100BE300ED5CB34C8E7F9D0C9C71839E5EB95E8AD7
:100BF3007C943C068136852A4285108C5983CB63CD
:100C0300A632869D5085248103875A018660890C0C
:100C1300A76985DA379A6E946C82700685740E9490
:100C23001186AD31897AA24E83AB5B9303A41AA0DC
:100C33007482C04E81937A836AAB744E8818124EC5
:100C43006E86668C4084D4708368906D68080781D3
:100C530037B46081574EBD0083C62387D02F81DD13
:100C630007853181168403812D8E4395114E8C188F
:100C7300826C1A8122891F82658B12817B82691E95
:100C8300815F443B8238846C924F83A602253A7C71
:100C93000649343F038D31843F8317855882522F91
:100CA300A20E8C4C9F58860D83B17E74824B901993
:100CB3008804971F0A05842C854A0485630A040166
:100CC300306C857284139219825E89790F5982ADD3
:100CD30069839A208170148111816187088204825B
:100CE3002A8D2E812B81450B8121A93854348D2ED9
:100CF3008272824C88182C825E0E817682370F8630
:100D03006085CD3DB40A82298217810F0E8A7782CE
:100D13003D86693068875783EF0A95458252962747
:100D230081C178812E820484128962860C88708442
:100D33002E86330185246083728210188370040A1F
:100D43000A1C026447896D894630468145835F8169
:100D53004282370F064888028D2283AC38062E81E3
:100D6300228676847B81478752A168820D81078A18
:100D730062921643872D8231824F83CB3C827C82E1
:100D830047A7338122148446840A28190162822AE0
:100D930014946B822882731A8159954085C02D89DA
:100DA3001A837969069305896F2D8C1655815085B1
:100DB3002618846A815C148204817E748D0E8213EA
:100DC3004B8246827282325B822783592472824825
:100DD3000E01852385CF43817E8170A9758A48944E
:100DE30060821184564E816A849F37884F81BE2961
:100DF3009B038176870D8A480F8476821E975585DB
:100E0300248A4868957F83AC188912068D2A882323
:100E1300907F9E02069A47813D83BA1341BA3C8173
:100E230000810B85F701890C9D2691278E1D8E4C21
:100E3300836606845F300F85E356D72683F973856F
:100E430038828570AB0DC126FF21D55670B46681FB
:100E53003D829A6D86AE129D658D1AD62A8D4A8182
:100E6300A015B26A81CA419502813EB74A81B3593E
:100E7300985EF41C81E374D00D99029F7C1D31822E
:100E830044A46020946B94199E55EA559847EE5BF1
:100E930082B42CC938837482588C3B6C018C3268C1
:100EA3008D1981518122872A2582791483508303E6
:100EB3008B280E692212813C0628825A8238041438
:100EC300826616820E1A847692240D83A6028A1AEB
:100ED3008522833D85288830A3532D812A749275FA
:100EE3008120418136836E627E81336E838335C96F
:100EF30024068C328776997A8136885345811C8102
:100F03006087450188368D2E8B79883C6182A23BB0
:100F1300107908821E0890091095680EBE75817BB2
:100F2300030B157F2182C60681221494688C2569E0
:100F3300810A2C0682498B28812F468612876530C9
:100F430081758120820F0E6A8175288703834B8206
:100F5300B07E812548913C9506815B37635A9B3C63
:100F63008228100240406F279B3C82049F2CFC7117
:100F7300819A2B8A2A8A2EA06E6E851E8422883D32
:100F83008150814388160D278552821E853E83DF5B
:100F93001697AB06811D2D22811A090E01922D8110
:100FA3003081291525932D0881133C9F4604038521
:100FB300EF498131844A01811C84669B0C3406828B
:100FC300418C7783638645891D68896E8749827161
:100FD3000F648228873791708528839E6619814A1A
:100FE300811C21814E628327018118826A8120023C
:100FF300871385376A834C851A864C8E5B813A85C5
:10100300350483487389625B81438C27820A628239
:1010130023815F830D0A852A823F831982D578D481
:101023001C987101268F7A25812A9831068A768247
:101033002A854C8219048F680401811C0684028965
:10104300597085C83C25826C1B0B822C8640840416
:101053009302972281368301698C1C0681171982BA
:101063001E8F6C8524820383478238824585111342
:1010730085D331138F258C7A8D730E01844482635B
:101083008D5B8967891F85E1408544942B8603899D
:1010930012852401817E5B32200A83448334198CB8
:1010A3006D884A8770831583246F82068120821D91
:1010B3000E01820307813681A1430C09111D015AD8
:1010C3000D942995249D66811A3525040B3D520202
:1010D3002C8B31035D831D0B8B7281AB1681508B7F
:1010E300798577068130348C0A8B4A8D0E83698526
:1010F3000F821D891B8A1835823F8A4B872A8524D4
:1011030082A72514142F8107060F2B6169210290F2
:1011130058640461499358817F2E26062E0E229B24
:10112300416F815C20222F392628068C0313830B01
:10113300058C1C8227762593469878854A830687F3
:101143006A702C996C892A220E9C728232980B1138
:10115300872D0F819144A727010D81401D69BE0B87
:10116300349D3A14810B6D0E0D7617921009944D30
:1011730006817E1408043C9C4D826E0F511A0B9E0F
:101183001F11046D12936B88509463822096232E53
:101193009C24815E8156BB7C811D417C2607924441
:1011A30094693582039F49430F4E399B4249A16F8E
:1011B300208920942EA359811D248118862F118FF5
:1011C300668E1C89119469810B7F681C6990582D68
:1011D300817381159202141F0807810E140D0825CF
:1011E3001454340E8B7F924A05010245421B8B69CE
:1011F300546A90726B0681856E813E0282B11381BF
:10120300150A044106011E156206080F25265C9087
:1012130011680C0264813B2F9250812A2704099E96
:1012230045363F230D041D2C570B8B5507028403B2
:101233008E18110409A1198838A01A811A0E8E0874
:101243001A82709B2B278116842C81B44A077F1541
:101253001A9212813270930C81142D6F160B9E6BB0
:101263000243099E6981AD27AE639161963881BAC5
:101273002B8248840D39628E08910235885C0163A4
:101283008441811C204383248157837E0A62891D04
:101293000E0167894D148205831E811D817085248B
:1012A30084038A4D833483AD3481020606941CA4DF
:1012B3004806860205826B1B8202780B8734678B94
:1012C3003F701806836A8162069640836E82B4611A
:1012D3008259924581339F5A6F8F1281278C384EE2
:1012E300810B0E95058B46833A8903AA67288523CC
:1012F3000159920587470F895B812D85E25CA50B18
:101303008C23825F6E0122368602830D81398931F7
:101313008327388722877C896084120B82A12681E8
:101323001C641D34812F904C77815B923E35330FC3
:1013330082100E5A9E0F520F81110B9B6A41814EF0
:10134300811F9511829E606E01B54D4385522D8399
:10135300120E01589366816E4E8A6181AD7F92426F
:101363006110966B0E61812482903F8E0D95118AD8
:101373004884E44F88C51CDC25AA20818F2D825C1C
:1013830082398727788F2382580E068D49843C9FA4
:1013930058857D8F03906083A46EA745DD52973CEB
:1013A3008D198703C021C851B86386FF5797235807
:1013B300812A8129923D812A99683483D850058DE9
:1013C3001A9A4881140E921682380A4483D16F8F79
:1013D300058755812299558D258247837F895A88B0
:1013E300167181418C10896A85C8129911885A94A3
:1013F30055A4040E0184658B008A947D81F23C8E92
:10140300498524018B7E81371926871C8524811CFD
:101413001A0681518913812E95168A428741018AC2
:101423004383AE3B06548C668464068130941D8FDF
:10143300048175812B872882D7278164811D41917F
:1014430023821A936A814F145B199E7543CC53040C
:10145300827C835089709B21860C823E032506146F
:10146300348A058A480F85238225860C873C85FDAF
:101473005F947B0613813D826C8B2A068130349303
:101483003B82AC4D825A5D91253483299401810FAF
:10149300BE21946EA4D073CE338A6283C341051BED
:1014A300B8556883FF2D9E3186EF2A0C868C488AB7
:1014B300A36EDA308ABE616F0006F910000044A8FB
:0C14C300000002A40000001A000000015C
:0217E8008F2749
:1017EA00E4F52BF52AF529F528F52CE527252CF81B
:1017FA00E624BFFFE434FF8F82F583AF2BAE2AAD18
:10180A0029AC287803121DCBC004C005C006C00746
:10181A00AF2BAE2AAD29AC287801121DCBD003D04C
:10182A0002D001D000EF2BFFEE3AFEED39FDEC3885
:10183A00FCC004C005C006C007AF2BAE2AAD29AC58
:10184A00287804121DCBD003D002D001D000EB2F90
:10185A00FFEA3EFEE93DFDE83CFCA804A905AA060C
:10186A00AB07AE83E4FCFDEB2582F52BEA3EF52AB5
:10187A00ED39F529EC38F528052CE52C64056003CB
:0B188A000217F5AF2BAE2AAD29AC28E9
:011895002230
:0814CF008E2D8F2E8C2F8D3025
:1014D7008F828E83740193FFE4FCFDFE7808121D52
:1014E700CBC004C005C006C007E493FFE4FCFDFEC3
:1014F7007810121DCBD003D002D001D000EF4BFBE8
:10150700EE4AFAED49F9EC48F8740293FFEB4FF510
:101517003CEAF53BE9F53AE8F539753600753703E6
:10152700C3E5379530E536952F4003021609E535B3
:101537006016E4FFFEFDFCAB34AA33A932A831C321
:10154700121DBA701C021609AF34AE33AD32AC317E
:10155700AB3CAA3BA93AA839C3121DBA40030216ED
:1015670009E4F540F53FF53EF53DE52E2537F582D3
:10157700E52D3536F583E493F5380537E537700201
:101587000536E538547FFFE4FCFDFEC004C005C006
:1015970006C007AF40AE3FAD3EAC3D7807121DCB4E
:1015A700D003D002D001D000EF4BF540EE4AF53F13
:1015B700ED49F53EEC48F53DE53830E70BC3E53737
:1015C7009530E536952F40A2E53C2540F53CE53BB7
:1015D700353FF53BE53A353EF53AE539353DF539E1
:1015E700E5357003021527E53424FFF534E5333478
:1015F700FFF533E53234FFF532E53134FFF53102DB
:101607001527E5356009AF3CAE3BAD3AAC3922AFA3
:1016170034AE33AD32AC31AB3CAA3BA93AA839C39F
:10162700121DBA400AAF3CAE3BAD3AAC39800674E6
:05163700FFFFFEFDFCB9
:01163C00228B
:101BD4001217E88F268E258D248C237E007F0385A3
:101BE40026348525338D328C31E4F5357DAE7C0485
:101BF4001214CFAB26AA25A924A823C3121DBA7098
:101C0400037F01227E047FB1852634852533852414
:101C140032852331E4F5357D0A7C101214CFAB26CE
:101C2400AA25A924A823C3121DBA70037F01227F09
:011C340000AF
:011C3500228C
:0219D5008F225F
:1019D7007E007F03C006C007AE04AF05E48F348ED8
:1019E70033F532F531753501D007D0067DAE7C046D
:1019F7001214CF8F268E258D248C23E4F52BE52B0F
:101A070025E025E024BBF582E43414F583121DDEBE
:101A17008F2A8E298D288C27E4F52CAF2AAE29AD85
:101A270028AC27AB26AA25A924A823C3121DBA4090
:101A37001CE526952AF526E5259529F525E524951E
:101A470028F524E5239527F523052C80CEE52C24BE
:101A570041FFE522252BF8A607052BE52BB4059EAC
:011A6700225C
:101F1D00C3ED9458EC9402400A74A82DFD74FD3C59
:061F2D00FC80ED0219D555
:03000000021A6879
:0C1A6800787FE4F6D8FD758186021AAF85
:101DBA00EB9FF5F0EA9E42F0E99D42F0E89C45F07F
:011DCA0022F6
:101DCB00E8600FEFC333FFEE33FEED33FDEC33FC76
:031DDB00D8F1221A
:101DDE00E493FC740193FD740293FE740393FF224B
:101A7400021C36E493A3F8E493A34003F68001F236
:101A840008DFF48029E493A3F85407240CC8C33373
:101A9400C4540F4420C8834004F456800146F6DF42
:101AA400E4800B0102040810204080901FC3E47EF0
:101AB400019360BCA3FF543F30E509541FFEE49337
:101AC400A360010ECF54C025E060A840B8E493A3FE
:101AD400FAE493A3F8E493A3C8C582C8CAC583CA29
:101AE400F0A3C8C582C8CAC583CADFE9DEE780BEE1
:011FC600001A
:00000001FF
