:1013F50020202020202020202020202020202020E8
:09140500001F1F1F1F1F1F1F1FE6
:1011A1007A137BF57D017F0112135EE51D2431FB6E
:1011B1007D017F011214BC7B207D027F011214BCD2
:1011C100AF1D12000EAA06AB077D037F0102135E5D
:10130E007A137BF57D017F0212135EE51D2431FBFE
:10131E007D017F021214BC7B2F7D027F021214BC52
:09132E007B327D037F020214BC36
:1011D10012140E8E278F28E52845277002FF221250
:1011E10014D0EFC4F8540FC868FFEEC454F048FEA1
:0F11F100AC27AD28120FC6EFD3941040027F1029
:0112000022CB
:10128F001211D18F1CE4F526E52604FDE526C39542
:10129F001C50047B0080027B207F021214BC0526A9
:0A12AF00E526C3941040E1751E010E
:0112B9002212
:1013DB00E51C04FDD3941040027D10E51E60047BD8
:0A13EB000080027B207F020214BC88
:101078001211D1EFD3951C4017121423EF6032E5FB
:101088001C04FDE4FB7F021214BC051C751E012222
:10109800E5154514701B121423EF601575140175BE
:1010A800152CE51E70047F0180027F008F1E12132D
:0110B800DB5C
:0110B9002214
:020D07008F2239
:100D0900E51F7052E522B4020EE51DD3940050038D
:100D1900020DE2151D801DE522B40320E51D240105
:100D2900FFE433FEC3EF9402EE6480948040030233
:100D39000DE2051DAF1D12116B020DDCE5226401E8
:100D49006003020DE2AF1D12116B751F011211A193
:100D590012128F021201E522B40119120008BF0113
:100D69000912149A751E010213DB120008EF6402BE
:100D790070678051E52264026006E52264037048C9
:100D89001214D9EFFD7C007E277F10120FC68E2327
:100D99008F24120008BF01047F0180027F008F2584
:100DA900E525600312149AE522B4020BC3E49524E5
:100DB900FFE49523FE8004AF24AE23120E8D121298
:100DC9008FE5256014021380E522B4040C1214B2D5
:090DD900E4F51F1211A112130E22
:010DE20022EE
:10101B007F6412148C1214377C147D06E4FF1212B9
:10102B00311214A6121261E4F51FF51D751E01F5A0
:10103B001CAF1D12116B1211A112130E1210BA8FCD
:10104B0021E5216005120D0780F2E51FB401ED12B9
:10105B000008BF01081210FC12107880DF12000884
:0D106B00EF70D9F51F1211A112130E80CFE6
:10001E00F279F33FF3FAF4AAF550F5EDF681F70D08
:10002E00F791F80DF883F8F2F95BF9BEFA1BFA7343
:10003E00FAC6FB15FB5FFBA4FBE6FC25FC60FC97F8
:10004E00FCCBFCFDFD2BFD57FD81FDA8FDCDFDF08C
:10005E00FE11FE30FE4EFE69FE8444610CC3058F18
:10006E004D4B4452004849544348434F434B0014B0
:10007E0002FE021402FE021402FE0214041402FE18
:10008E0002140214021402140214021402140214B2
:10009E000214020F02FE020F0214021402140214C2
:1000AE000214021402140214021404140214021490
:1000BE00020F02FE020F020D020D021402140114B1
:1000CE0001FE0614021302FE0211021302FE060CBA
:1000DE00020F020F020F020F020F020F020F020F8A
:1000EE00020F020F0211020F020F02FE040F021482
:1000FE0002FE021402140214021402140214021458
:10010E000214021402140214020F02FE020F021451
:10011E0002FE0214021402FE02140214021402144D
:10012E000214021402140214020F02FE020F020D38
:10013E00020D02140214021401FE0514021302131E
:10014E0002110213021301FE050C020F020F020F21
:10015E00020F020F020F020F020F020F020F021107
:10016E00020F020F02FE0211040F04FE0A11040F09
:10017E00040F01FE0A1402FE021402FE021402FE15
:10018E0002140214021402140214021402140214B1
:10019E0002140214021402140214020F02FE020FC1
:1001AE000214021402140214021402140214021491
:1001BE0002140214021402140214020F02FE020FA1
:1001CE00020D04140214011401FE0614021304118C
:1001DE000213011301FE060C020F020F020F020F93
:1001EE00020F020F020F020F020F020F0211020F77
:1001FE00020F02FE061402FE02140214021402146E
:10020E000214021402140214021402140214020F35
:10021E00040F021402FE0214021402140214021439
:10022E0002140214021404140214020F040F020D1D
:10023E00030D01140214021401FE0514021304111D
:10024E00021303FE050C020F020F020F020F020F24
:10025E00020F020F020F020F020F0211020F020F06
:10026E0002FE020F021102140814031403140213E7
:10027E0008110411060F020F04160413041402FED3
:10028E0002110411041304140414081602140213A8
:10029E0002FE02180416041404160418041602169C
:1002AE000218041602160218041602160214041B73
:1002BE00031B01180218021B031B01180218021659
:1002CE000414021402160316011806FE021104137A
:1002DE000414041604140416041804160415041643
:1002EE000415041108FE0411021102160418021856
:1002FE000216021602180416021602180416041428
:10030E000214021B031B01180218021B02FE021824
:10031E00021802160216021402140216031601180F
:10032E0004FE041104130414041604140416041811
:10033E0004160415041604150411081804160418DE
:10034E00021B0218021B021804FE041602180216E3
:10035E000218021604FE081404FE020F04FE021414
:10036E00061606180418021B0218021B021804FEB9
:10037E000416021802160218021604FE04160415BC
:10038E0004160415041108FE0818021B0218021B9D
:10039E00021804FE0416021802160218021604FEB3
:1003AE00081404FE020F04FE0214061606180418A2
:1003BE00021B0218021B021804FE04160218021673
:1003CE000218021604FE0416041504160415041170
:1003DE0008FE0A140214021402FE021402FE021493
:1003EE00041402140414021402140214021402144B
:1003FE0002140214020F02FE020F0214021402145F
:10040E00021402140214021402140214021402142E
:10041E0002140214020F02FE020F020D02FE02145B
:10042E00021402FE0614021302FE0211021301133D
:10043E0001FE060C020F020F020F020F020F040F35
:10044E00020F020F020F0211020F020F02FE06141C
:10045E0002140214021402140214021402140214DE
:10046E000214021402140214020F02FE020F0214EE
:10047E0002FE0214021404140214021402140214D2
:10048E00021402140214020F02FE020F020D0414D3
:10049E00021402FE0614021304110213021301FECB
:1004AE00050C020F020F020F020F020F020F040FB4
:1004BE00020F020F0211020F020F02FE020F0211B3
:1004CE00021408140614021308110411060F020F69
:1004DE0004160413041402FE02110411041304146E
:1004EE000A1402160214021302FE02180416041451
:1004FE000416041804160216021804160216021820
:10050E00041602160214041B031B01180218021B08
:10051E00031B01180218021602FE02140214021620
:10052E00041804FE0411041304140416041404160F
:10053E0004180416041504160415041108FE0411FB
:10054E0002110216041802180216021602180416D8
:10055E00021602180218021604140214021B031BC0
:10056E0001180218021B02FE0218021802160316C8
:10057E000114021402160316011804FE04110413CA
:10058E000414041604140416041804160415041690
:10059E000415041108180416041840FE0A0F02115F
:1005AE00021408140614021308110411060F020F88
:1005BE0004160413041402FE02110411041304148D
:1005CE000A1402160214021302FE02180416041470
:1005DE0004FE0A180416041404160418041602164F
:1005EE000218041602160218041602160214041B30
:1005FE00031B01180218021B031B01180218021616
:10060E000414021402160316011806FE0211041336
:10061E0004140416041404160418041604150416FF
:10062E000415041108FE0411021102160418021812
:10063E0002160216021804160216021804160414E4
:10064E000214021B031B01180218021B02FE0218E1
:10065E0002180216021602140214021603160118CC
:10066E0004FE0411041304140416041404160418CE
:10067E00041604150416041504110818041604169D
:10068E00041804160216021804160216021804168E
:10069E0002160214041B031B01180218021B031B73
:1006AE0001180218021602FE021402140216041891
:1006BE0004FE04110413041404160414041604187E
:1006CE000416041504160415041108FE0411021173
:1006DE000216041802180216021602180416021642
:1006EE0002180218021604140214021B031B01182E
:1006FE000218021B02FE021802180216031601143B
:10070E00021402160316011804FE04110413041435
:10071E0004160414041604180416041504160415FD
:10072E000411081804160418021B0218021B0218E2
:10073E0004FE0416021802160218021604FE08140D
:10074E0004FE020F04FE0214061606180418021BFD
:10075E000218021B021804FE0416021802160218D2
:10076E00021604FE0416041504160415041108FEE0
:10077E000818021B0218021B021804FE04160218A7
:10078E0002160218021604FE081404FE020F04FEDE
:10079E000214061606180418021B0218021B021871
:1007AE0004FE0416021802160218021604FE04169F
:1007BE00041504160415041108FE0818021B02186D
:1007CE00021B021804FE0416021802160218021664
:1007DE0004FE081404FE020F04FE02140616061888
:1007EE000418021B0218021B021804FE041602183B
:1007FE0002160218021604FE041604150416041539
:10080E00041108FE0818021B0218021B021804FE2F
:10081E000416021802160218021604FE081404FE2C
:10082E00020F04FE0214061606180418021B021804
:10083E00021B021804FE04160218021602180216F3
:10084E0004FE0416041504160415041108FE0818F7
:10085E00021B0218021B021804FE041602180216CE
:10086E000218021604FE081404FE020F04FE0214FF
:10087E00061606180418021B0218021B021804FEA4
:10088E000416021802160218021604FE04160415A7
:10089E0004160415041108FE0818021B0218021B88
:1008AE00021804FE0416021802160218021604FE9E
:1008BE00081404FE020F04FE02140616061804188D
:1008CE00021B0218021B021804FE0416021802165E
:1008DE000218021604FE041604150416041504115B
:1008EE0008FF001103110111031201140314011169
:1008FE00030D010F030F010F030F01110311010F60
:10090E00030D01110311010F030D01FE030D010F64
:10091E00040D04FE0A0D011103110111031201143D
:10092E0003140111030D010F030F010F030F01112A
:10093E000311010F030D01110311010F030D01FE30
:10094E00030D010F040D04FE0A0D01110311011117
:10095E000312011403140111030D010F030F010FF4
:10096E00030F01110311010F030D01110311010FEB
:10097E00030D01FE030D010F040D04FE0A110311F8
:10098E0001110312011403140111030D010F030FC2
:10099E00010F030F01110311010F030D01110311BB
:1009AE00010F030D01FE030D010A030C010D04FEE0
:1009BE00070D011103120114040D030D01FE030DA9
:1009CE000116031409FE030D010F0311010F040D8F
:1009DE00030D01FE030D0112041108FE030D01119A
:1009EE0003120114040D030D01FE0316041405FE7B
:1009FE00031401160314010D030F19FE070F011145
:100A0E0003110112031101FE0312051104FE04115C
:100A1E000414031101160416041603140111030D18
:100A2E00010F04FE040D030D010F030D011104113E
:100A3E000311011103140111040D04FE040A041123
:100A4E000311010F030F010F030F010F030F01110C
:100A5E000311011403140111030F040F010D030DF3
:100A6E00010F031101FE030D01FE041603140911FB
:100A7E0003110114031101160416031601160314B3
:100A8E000111030D010F04FE040D030D010F030DE3
:100A9E00011104110311011103180118031905FEA8
:100AAE00040D030D010F0311010F030D010D030DB5
:100ABE00010D030D010F0311010F030D010D030DA8
:100ACE00010F040D04FE0A0D011103140116041486
:100ADE000311040F010F030D010F030F010F03117B
:100AEE00040F040D0111031101110311011404115E
:100AFE00040D04FE070A010D0311010F030D010D74
:100B0E00030D040D010F0311010F030D010F030D52
:100B1E00040D010D03140119031901140314011618
:100B2E00041404FE0A0A030C010D040D030D010D3D
:100B3E00030D0111040F040D040F040D04FE0A0829
:100B4E000308010C030C010D030D010D030D010D26
:100B5E00030D0111040F040D040F040D04FE0A1100
:100B6E000414031101160416041603140111030DC7
:100B7E00010F04FE040D030D010F030D01110411ED
:100B8E000311011103140111040D04FE040A030ADA
:100B9E0001110311010F030F010F030F010F030FBB
:100BAE0001110311011403140111030F040F010DA0
:100BBE00030D010F031101FE030D01FE04160315B3
:100BCE00091103110114031101160416031601165F
:100BDE0003140111030D0111040F040D030D010F78
:100BEE00030D011103110111031101110318011855
:100BFE00031905FE040D030D010F0311010F030D63
:100C0E00010D0CFE08110311011403110116031638
:100C1E0001160316011603140111030D010F04FE34
:100C2E00040D030D010F030D011103110111031129
:100C3E0001140411040D04FE040A04110311010F22
:100C4E00030F010F030F010F030F01110311011405
:100C5E0003140111030F040F010D030D010F0311F6
:100C6E0001FE030D01FE04160314091103110114F4
:100C7E000311011604160316011603140111030DB8
:100C8E00010F04FE040D030D010F030D01110311DD
:100C9E0001110311011103180118031905FE040DAA
:100CAE00030D010F0311010F030D010D030D010DB6
:100CBE00030D010F0311010F030D010D030D010FA4
:100CCE00040D04FE0A0D030D010F0311010F030D98
:100CDE00010D030D010D030D010F0311010F030D86
:100CEE00010D030D010F040D04FE0A0D010F030D7E
:090CFE0009FE0A1204140BFF00A8
:03000B0002147E5E
:0E147E00C0E0E509F58C850A8AB2A5D0E032FF
:03001B0002133796
:10133700C0E0758DFC758B67E51745166008E517E6
:10134700151770021516E51545146008E5151515EE
:0713570070021514D0E03212
:1013A100EF25E0241EF582E43400F583E493F5098A
:0F13B100740193F50AE509F58C850A8AD28C221E
:05000300C28CC2A52221
:100DE300E50E2510F582E50D350FF583E493FBE55C
:100DF300102401FFE4350FFEE50E2FF582E50D3ECD
:100E0300F583E493FF2512F512E43511F51174020D
:100E13002510F510E4350FF50F7E00AD087C0012A8
:100E23000FB4AD07AC06BBFE14120003750B01E44F
:100E3300F518F5198C1A8D1B8C168D1722ECC4F836
:100E430054F0C868F51AEDC4540F48F51BC3940851
:100E5300E51A94005006751A00751B08ECC313FEBF
:100E6300ED13FFD3E51B9FE51A9E40048E1A8F1BDB
:100E7300AF031213A1C3ED951BF519EC951AF518E1
:090E8300E4F50B8518168519171A
:010E8C002243
:10126100758911C28CC2A5758DFC758B67D28EE410
:10127100F516F517F514F51590004E93F50974015F
:0E12810093F50AD2A9D2ABD2AFE4FF02116BF3
:10116B00EFC394024002E4FF8F13EF70067C007D07
:10117B007D80047C087DF18C0D8D0EEF90006893C3
:10118B00F508E4F50FF510F511F512F50BF516F55D
:06119B0017F50C02000331
:03000800AF0C2218
:0514D000AE11AF122275
:10140E00E51325E0246AF582E43400F583E493FEC7
:05141E00740193FF22A0
:0314D900AF082237
:0D000E00EF70057E007F6E227E007F732262
:10142300E50C640160037F0122E50B60047F01800A
:04143300027F002212
:10120100E50C64016029E50C700AF50FF510F51184
:10121100F512F50B750C01E50E2510F582E50D357E
:101221000FF583E493B4FF04E4F50C22120DE322DD
:0C149A00E50CB40106750C0212000322E0
:10138000E50CB4021B750C01E50E2510F582E50D88
:10139000350FF583E493B4FF04E4F50C22120DE35A
:0113A000222A
:0A14B200E4F50CF516F5170200032F
:100E8D00E5122FF527E5113EF526E4FFFEF528F5D1
:100E9D0029E50CB401047D0180027D00A905C3E59F
:100EAD0026648094805005E4F526F527C3E5299541
:100EBD0027E52895265034E50E2FF582E50D3EF5F4
:100ECD0083E493F46025EF2401FDE43EFCE50E2D53
:100EDD00F582E50D3CF583E4932529F529E43528C4
:100EED00F52874022FFFE43EFE80C18E0F8F108512
:100EFD002811852912E4F516F517F50B120003E5F7
:100F0D000E2510F582E50D350FF583E493B4FF043E
:0A0F1D00E4F50C22E96003120DE375
:010F270022A7
:1010FC00E50C64017031E5174516702BE50B700D8E
:10110C00120003750B01851A16851B1722E50E2597
:10111C0010F582E50D350FF583E493B4FF06E4F585
:08112C000C020003120DE32286
:0314D500012A00E9
:0C14A600D2B0D2B1D2B2D2B3E4F52A2207
:10113400E4F526A2009202F525E525C39524501571
:101144001214C6A200300201B350060526A2009272
:1011540002052580E4E526700BA200300101B340AE
:06116400037F01227F0061
:01116A002262
:1012BA008F23E523B40104A2B08014E523B4020409
:1012CA00A2B1800BE523B40404A2B38002A2B292B5
:0A12DA0000C20175241E1211342217
:1012E4008F23E523B40104A2B08014E523B40204DF
:1012F400A2B1800BE523B40404A2B38002A2B2928B
:0A13040000D20175241412113422E6
:1013C00020B0037F012220B1037F022220B2037FDD
:0B13D000032220B3037F04227F0022D1
:1010BA001213C08F22E5227011E52A600AFF12126C
:1010CA00E4EF6003E4F52A7F0022E522B52A037FD4
:1010DA0000227F0A12148C1213C0EF652260037F6C
:1010EA000022AF221212BAEF7002FF2285222AAF23
:0110FA0022D3
:0110FB0022D2
:10145E00C2A6C2A58F80D2A71214C6C2A70214C6F6
:10146E00D2A6C2A58F80D2A71214C6C2A70214C6D6
:101437007F3812145E7F0C12145E7F0612145E7FD3
:041447000102145E2C
:10144B008D29E529BF0103148002243F4480FF123C
:03145B00145E22FA
:0A14BC008B2712144BAF2702146EA9
:04135E008A268B2729
:1013620012144BE4F528E5272528F582E43526F505
:0D13720083E493FF600712146E052880E9E4
:01137F00224B
:041231008C228D235B
:10123500EF540733333354F84440FF12145EE4F59A
:1012450024E5232524F582E43522F583E493FF1272
:0B125500146E0524E524C3940840E655
:01126000226B
:0914C600007F027EC7DEFEDFFCA0
:0114CF0022FA
:0E148C00AD07AF051DEF60051214C680F522F6
:03000000020F28C4
:0C0F2800787FE4F6D8FD75812A020F6F77
:100FB400EF8DF0A4A8F0CF8CF0A428CE8DF0A42E51
:020FC400FE220B
:100FC600BC000BBE0029EF8DF084FFADF022E4CC0F
:100FD600F875F008EF2FFFEE33FEEC33FCEE9DECD8
:100FE600984005FCEE9DFE0FD5F0E9E4CEFD22ED1E
:100FF600F8F5F0EE8420D21CFEADF075F008EF2F68
:10100600FFED33FD4007985006D5F0F222C398FD58
:051016000FD5F0EA22F5
:100F340002101BE493A3F8E493A34003F68001F2A8
:100F440008DFF48029E493A3F85407240CC8C333BE
:100F5400C4540F4420C8834004F456800146F6DF8D
:100F6400E4800B01020408102040809014D5E47E34
:100F7400019360BCA3FF543F30E509541FFEE49382
:100F8400A360010ECF54C025E060A840B8E493A349
:100F9400FAE493A3F8E493A3C8C582C8CAC583CA74
:100FA400F0A3C8C582C8CAC583CADFE9DEE780BE2C
:0114D8000013
:00000001FF
