:100957002020202020202020202020202020202090
:10096700004B312F4B33204B323A474F0053434F05
:1009770052452000002000002200004001004203F1
:10098700006002006E0200800300900100A00000DA
:10099700B20000C00100C00300D40300E00200F869
:1009A70002010003012200013B010143010143034E
:1009B700015B0001630201790301870301A30201BF
:1009C700A70001C70101CB0101E70201EB00020704
:1009D7000302190302370202470002690102750187
:1009E70002890002890202A90302AD0002C90002BE
:1009F700D10302E901030902031502032903033C9A
:100A070001034900036500036901038900038902A3
:100A1700039F0303A90303C90003E10203E90104D8
:100A27000902042901042903042B0104490004696C
:100A370001046B0004890204AB0304B10304CB0077
:100A470004D10204EB0104F701050B02051D0005A3
:100A57002B03054103054B00056502056B01058B5B
:100A67000205950105AF0105AF0305CB0005CF00D2
:100A770005CF0205F101060703061102062F02063C
:100A87003203001400001701002B01003F0200434E
:100A970000005303006203006A00007E01007E032A
:100AA700008E0200920200A90300BF0000C00100EF
:100AB700D30100D30300DC0000E70200FB03010BB6
:100AC70003011700012C01014002014702015403F1
:100AD700017B00019401019C0101A80001A802010A
:100AE700BC0301C70001D40001E80101F00301FCC8
:100AF70002021403022002022800023C01024801FC
:100B0700025400025402026803026F0002860002C8
:100B17009A01029F0302AE0202C60102C60302CF78
:100B27000202DA0002EE0102F201030502031903D1
:100B3700033300033700034701036502036C030314
:100B47007903038D0003980203A50103B90203BDCE
:100B57000103CD0103CD0303E50003E50203ED0027
:100B670003F901040D0204110304250304450004DD
:100B77004C02045901046D020470010485030499B1
:100B870000049C0004AD0104C50204C90304D90391
:100B970004ED0004F102050501050503051501052E
:100BA7001902053703054300054B00054B0205698C
:100BB70001058002440043004200410053005600F3
:040BC7005068690009
:091E68007A097B577D01021C9AE6
:1016F1008F0B8D0CE4F51BE47B0AFAF9F8AF10AE01
:101701000FAD0EAC0D120EF1EB2430FFAE1B051B1D
:1017110074112EF8A607AF10AE0FAD0EAC0DE47B21
:101721000AFAF9F8120EF18F108E0F8D0E8C0DE45E
:10173100FFFEFDFCAB10AA0FA90EA80DC3120F836B
:101741006007E51BC3940A40AEE51B6014AD0C05B0
:101751000C151B7411251BF8E6FBAF0B121E5480F0
:02176100E8227C
:1012F9008F0E8E0D8D0C8C0B7F407E427D0F7C00F6
:10130900AB0EAA0DA90CA80BC3120F8340057E0BC7
:101319007FC7227FC07E097D0E7C00AB0EAA0DA976
:101329000CA80BC3120F8340057E0B7FC5227F805B
:101339007E6D7D0D7C00AB0EAA0DA90CA80BC31206
:101349000F8340057E0B7FC3227F007E357D0C7C99
:1013590000AB0EAA0DA90CA80BC3120F8340057E82
:101369000B7FC1227F607EAE7D0A7C00AB0EAA0D89
:10137900A90CA80BC3120F8340057E0B7FBF227FE8
:10138900C07E277D097C00AB0EAA0DA90CA80BC352
:0F139900120F8340057E0B7FBD227E0B7FBB2290
:1017CC007F01121E68E53C2431FB7D017F01121E56
:1017DC00547B207D027F01121E54AF3C12000EAAD6
:1017EC0006AB077D037F01121C9A7F02121E68E56F
:1017FC003C2431FB7D017F02121E547B2F7D027F26
:10180C0002121E547B327D037F02121E547A097B16
:08181C00687D057F02021C9AA1
:101824007F01121E687A097B747D017F01121C9A64
:1018340085261085250F85240E85230D7D077F01C0
:101844001216F17F02121E68AF3C12000EAA06ABFC
:10185400077D017F02121C9A7B207D0A7F02121EE3
:1018640054AF26AE25AD24AC231212F9AA06AB0759
:071874007D0B7F02021C9AAC
:101C3200AD07AC06ED7803CEC313CE13D8F924C892
:101C4200F8E6FFED5407FEF8EF088002C313D8FC54
:041C52005401FF2218
:101C5600AD07AC06ED7803CEC313CE13D8F924C86E
:101C6600F9ED5407FFF87401088002C333D8FC4726
:021C7600F72253
:10187B0085288285278375F003EF120F94EE75F0A0
:10188B0003A42583F583E493F51E740193F51F12CE
:10189B001E71A907E95403FF7E00AC1EAD1F120D8C
:1018AB00FFEF7802CEC313CE13D8F9FBAA06E913C8
:1018BB0013543FFF7E00AC1EAD1F120DFFEF2BFF2D
:0418CB00EE3AFE22D1
:10112B00AE21AF227C007D64120FA08F0E8E0D8D31
:10113B000C8C0BAE2EAF2F7C007D3C120FA0E50E5E
:10114B002FF50EE50D3EF50DE50C3DF50CE50B3CD5
:10115B00F50BAE2AAF2B7C007D64120FA08F128E85
:10116B00118D108C0FAB12AA11A910A80F7F407E06
:10117B00427D0F7C00120EF18F168E158D148C1381
:10118B00AB12AA11A910A80F7F407E427D0F7C00E5
:10119B00120EF1AC00AD01AE02AF038F1A8E198D9A
:1011AB00188C17E47B02FAF9F8AF12AE11AD10AC44
:1011BB000F120EF1C004C005C006C007AF1AAE195E
:1011CB00AD18AC17AB0EAA0DA90CA80B120E66D05E
:1011DB0003D002D001D000EF2BFFEE3AFEED39FD2C
:1011EB00EC38FCAB12AA11A910A80F120EF1C00417
:1011FB00C005C006C007AF16AE15AD14AC13AB0ED1
:10120B00AA0DA90CA80B120E66D003D002D001D0E8
:0E121B0000EF2BFFEE3AFEED39FDEC38FC2221
:051CF300F9AF1B7E00AB
:101CF8007C007D05120E11AF05A80774100880023C
:061D0800C313D8FCFF220A
:101B4E00AE07BE0B037F0122BE1B037F0222745819
:101B5E002EF8E6FFF4600122E53DD394075007A668
:101B6E003DAF3D053D22E53DB40807753D09E4F660
:051B7E00FF227FFF22A1
:10144B00E4FEE4FFEE75F008A424782FF8E4F60F21
:10145B00BF08F10EBE08EB7D20785874FFF608DD4F
:10146B00FC7D207863760178737602E4FF74802F1D
:10147B00F8761074882FF876100FBF08F0E4FF741D
:10148B00362FF8E6603EEFC3940250047C018002D5
:10149B007C02AE04EF6003BF02047C0080027C047C
:1014AB00AD04E4FC74322FF8E6B402047B1F800217
:1014BB007B15ED2CFAEE75F008A424782AF8A60318
:1014CB000CBC04E00FBF04B7E52D60047877A62CA5
:0414DB00753D032236
:101D8B007F1078D574FFF608DFFC7F1078B874FFEE
:051D9B00F608DFFC2248
:101D7500BF20037F0022BF50037F0922BF47037F97
:061D85000A22EF04FF2218
:101D2900EF24E0FFEE3401CFC39DCF9CFE7C007D04
:0A1D390039120DFF0C7DE0020E11BF
:1013A800AB05AA04EFC3940250047E0080027E01BC
:1013B8008E19EF6003BF02047F0080027F048F183C
:1013C800E4F51CE51C2BF51BC39450506CE51B750C
:1013D800F00584FFE519C454F02FFF121B4E8F1A35
:1013E800E51AF46054E51A75F008A424782518F86D
:1013F800C000121CF3E74FD000F6E51A75F008A4F8
:1014080024792518F8C000121CF3E74FD000F6E540
:101418001A75F008A4247A2518F8C000121CF3E7FE
:101428004FD000F6E51A75F008A4247B2518F8C0FB
:1014380000121CF3E74FD000F6051CE51CC394030B
:03144800408122BE
:100BCB008E0C8F0D12144BE4F50EF50FC3E50F953C
:100BDB002BE50E952A506AAF0FAE0E121C32EF703A
:100BEB0056AF0FAE0E12187BAD07AC06E50D24E029
:100BFB00FFE50C3401FEC3EF9DEE9C403AED245A09
:100C0B00FFE43CFED3E50D9FE50C9E502AAF0DAEE5
:100C1B000C121D29AD07AC0685288285278375F03C
:100C2B0003E50F120F94E50E75F003A42583F583EE
:100C3B00740293FF1213A8050FE50F708F050E803A
:100C4B008BE53DD394084003753D08E4FDF510E5B5
:100C5B0010C3953D5044E4F512F513F511E51075ED
:100C6B00F008A424782511F8E6FBE51325E0FFE551
:100C7B001233FEEF6B8E12649DF5130511E511B463
:100C8B0008DBE51025E024D6F9E513677004E512BF
:100C9B00196760027D01051080B5E4F50EF50F7440
:100CAB0058250FF8E6FFF4600280027F208F1412A4
:100CBB001D758F15E50EC313E50F1324B8F8E6F574
:100CCB0017E50F30E005E517C48002E517540FFF59
:100CDB008F16E516651560027D01050FE50F700295
:100CEB00050EC39420E50E940040B4ED7003020D85
:100CFB00FE121CB9E4F510E510C3953D505CE4F50C
:100D0B0012F513F511E51075F008A424782511F8E8
:100D1B00E6FDE51325E0FFE51233FEEF6D8E126461
:100D2B009DF5130511E511B408DBE51025E024D67C
:100D3B00F9E513677004E5121967601AE51075F091
:100D4B0008A42478FDAF10121CD6E51025E024D59D
:100D5B00F8A61208A6130510809DE4F50EF50F7486
:100D6B0058250FF8E6FFF4600280027F208F1412E3
:100D7B001D758F15E50EC313E50F1324B8F8E6F5B3
:100D8B0017E50F30E005E517C48002E517540FFF98
:100D9B008F16E51665156044C3E50F9410E50E94A8
:100DAB000050047F0180027F02E50F540F04FD12F7
:100DBB001DEAAF14121E4AE50F30E00DE515C454C1
:100DCB00F0FFE517540F4F8006E51754F04515FD5E
:100DDB00E50EC313E50F1324B8F8A605050FE50FB1
:100DEB007002050EC39420E50E94005003020D6AA9
:040DFB00121C78222C
:040FCD00AD10AC0FA8
:100FD1008F118C128D1375160075176674FFF51835
:100FE100F519E4F51CF51DF514F515C3E515952B5B
:100FF100E514952A40030210D7AF15AE14121C3226
:10100100EF60030210CC85288285278375F003E504
:1010110015120F94E51475F003A42583F58374026A
:1010210093651160030210CCAF15AE1412187BAD9D
:1010310007AC06E51324E0FFE5123401FEC3EF9D82
:10104100EE9C50030210CCED245AFFE43CFED3E5A4
:10105100139FE5129E4009AF15AE14121C56806B0A
:10106100AF13AE12121D29C3EF9437EE9400402C3A
:10107100D3EF9439EE94005023EF9438EE9400406E
:101081000AEF24C8FDEE34FFFC8008C374389FFDCD
:10109100E49EFC8C1A8D1B751C028015EF64364E84
:1010A1006006EF643A4E7023751A00751B02751CB9
:1010B10001C3E51B9519E51A9518500F851A188576
:1010C1001B19851416851517851C1D0515E5157049
:1010D100020514020FECC3E517952BE516952A506E
:1010E10048AF17AE16121C56E51DB4020A0522E5DB
:1010F10022700C05218008052FE52F7002052E7442
:10110100362511F8761874322511F8A61D752D189B
:10111100E51DB402047F5080027F478F2CE5132424
:0A112100FCF531E51234FFF5302231
:101B83008F0E8C0F8D10E50E30E305E4FF120FD19D
:101B9300E50E30E2057F01120FCDE50E30E0057F43
:101BA30002120FCDE50E30E109AD10AC0F7F031229
:031BB3000FD1222D
:101676008E0B8F0CE50C653F7004E50B653E606ACA
:10168600850B3E850C3FE4FF74362FF8E6600116A5
:101696000FBF04F4E52D6002152D121D5CEF6541A8
:1016A60060088F41850B3A850C3BC3E50C953BFDE5
:1016B600E50B953AFCC3ED9404EC9400402CEF65E1
:1016C600296027E529F45FF50D8F29601DAD3BAC38
:1016D6003AFF121B83E53B650C7004E53A650B6027
:0B16E60009AD0CAC0BAF0D121B8322F2
:101967008E0B8F0CE4F50DF50EC3E50E952BE50DEB
:10197700952A5032AF0EAE0D121C32EF701EAF0E0D
:10198700AE0D12187BEF245AFFE43EFED3E50C9F01
:10199700E50B9E4007AF0EAE0D121C56050EE50E69
:0719A70070C7050D80C3228B
:10156B00E53C70067E097F7B80047E0A7F898E278F
:10157B008F28E53C7005FE7F5A80047E007F668EC7
:10158B002A8F2BE4FF7E0D78C8E4F608DEFCE4F529
:10159B0021F522F52EF52FF526F525F524F523FE5D
:1015AB00FF74362FF8E4F674322FF8E4F60FBF0011
:1015BB00010EEF64044E70E9E4F52D752C20AF3C61
:1015CB0012191E754001121D8B12144BE4FFFE12F3
:1015DB000BCB121D5C8F418F29E4F53AF53BF53EA1
:0915EB00F53FF530F5310218CF8F
:101AA800E4FBFAC3EB952BEA952A5018AF03AE0274
:101AB800121C32EF7007AF03AE02121C560BBB00AC
:101AC800010A80DF12112B8F268E258D248C23127C
:081AD8001D43754002021824B1
:101A2E008F0BE50BB4020BE53CD39400402E153C16
:101A3E00801AE50BB4031DE53C2401FFE433FEC31D
:101A4E00EF9402EE648094805012053CAF3C121964
:0D1A5E001E0217CCE50BB4010312156B221C
:0F1DFA00EF64016003BF0406E4F5401217CC222A
:1015F4007F64121E26121C0A121E34121A6BE4F5A2
:1016040040F53CAF3C12191E1217CCE540700E1287
:1016140019AE8F08E50860F3121A2E80EEE540B487
:10162400020E1219AE8F08E50860E0121DFA80DB85
:10163400121763121DA08E098F0A121676AF0AAE16
:1016440009121967120007EF7005121AA880BCC3AB
:10165400E50A9531FFE5099530FEC3EF9404EE9455
:101664000040A8AF0AAE09120BCB850930850A31B8
:0216740080995B
:10001E00F279F33FF3FAF4AAF550F5EDF681F70D08
:10002E00F791F80DF883F8F2F95BF9BEFA1BFA7343
:10003E00FAC6FB15FB5FFBA4FBE6FC25FC60FC97F8
:10004E00FCCBFCFDFD2BFD57FD81FDA8FDCDFDF08C
:10005E00FE11FE30FE4EFE69FE8444610663058F7E
:10006E004D4B4452004849544348434F434B0014B0
:10007E0002FE021402FE021402FE0214041402FE18
:10008E0002140214021402140214021402140214B2
:10009E000214020F02FE020F0214021402140214C2
:1000AE000214021402140214021404140214021490
:1000BE00020F02FE020F020D020D021402140114B1
:1000CE0001FE0614021302FE0211021302FE060CBA
:1000DE00020F020F020F020F020F020F020F020F8A
:1000EE00020F020F0211020F020F02FE040F021482
:1000FE0002FE021402140214021402140214021458
:10010E000214021402140214020F02FE020F021451
:10011E0002FE0214021402FE02140214021402144D
:10012E000214021402140214020F02FE020F020D38
:10013E00020D02140214021401FE0514021302131E
:10014E0002110213021301FE050C020F020F020F21
:10015E00020F020F020F020F020F020F020F021107
:10016E00020F020F02FE0211040F04FE0A11040F09
:10017E00040F01FE0A1402FE021402FE021402FE15
:10018E0002140214021402140214021402140214B1
:10019E0002140214021402140214020F02FE020FC1
:1001AE000214021402140214021402140214021491
:1001BE0002140214021402140214020F02FE020FA1
:1001CE00020D04140214011401FE0614021304118C
:1001DE000213011301FE060C020F020F020F020F93
:1001EE00020F020F020F020F020F020F0211020F77
:1001FE00020F02FE061402FE02140214021402146E
:10020E000214021402140214021402140214020F35
:10021E00040F021402FE0214021402140214021439
:10022E0002140214021404140214020F040F020D1D
:10023E00030D01140214021401FE0514021304111D
:10024E00021303FE050C020F020F020F020F020F24
:10025E00020F020F020F020F020F0211020F020F06
:10026E0002FE020F021102140814031403140213E7
:10027E0008110411060F020F04160413041402FED3
:10028E0002110411041304140414081602140213A8
:10029E0002FE02180416041404160418041602169C
:1002AE000218041602160218041602160214041B73
:1002BE00031B01180218021B031B01180218021659
:1002CE000414021402160316011806FE021104137A
:1002DE000414041604140416041804160415041643
:1002EE000415041108FE0411021102160418021856
:1002FE000216021602180416021602180416041428
:10030E000214021B031B01180218021B02FE021824
:10031E00021802160216021402140216031601180F
:10032E0004FE041104130414041604140416041811
:10033E0004160415041604150411081804160418DE
:10034E00021B0218021B021804FE041602180216E3
:10035E000218021604FE081404FE020F04FE021414
:10036E00061606180418021B0218021B021804FEB9
:10037E000416021802160218021604FE04160415BC
:10038E0004160415041108FE0818021B0218021B9D
:10039E00021804FE0416021802160218021604FEB3
:1003AE00081404FE020F04FE0214061606180418A2
:1003BE00021B0218021B021804FE04160218021673
:1003CE000218021604FE0416041504160415041170
:1003DE0008FE0A140214021402FE021402FE021493
:1003EE00041402140414021402140214021402144B
:1003FE0002140214020F02FE020F0214021402145F
:10040E00021402140214021402140214021402142E
:10041E0002140214020F02FE020F020D02FE02145B
:10042E00021402FE0614021302FE0211021301133D
:10043E0001FE060C020F020F020F020F020F040F35
:10044E00020F020F020F0211020F020F02FE06141C
:10045E0002140214021402140214021402140214DE
:10046E000214021402140214020F02FE020F0214EE
:10047E0002FE0214021404140214021402140214D2
:10048E00021402140214020F02FE020F020D0414D3
:10049E00021402FE0614021304110213021301FECB
:1004AE00050C020F020F020F020F020F020F040FB4
:1004BE00020F020F0211020F020F02FE020F0211B3
:1004CE00021408140614021308110411060F020F69
:1004DE0004160413041402FE02110411041304146E
:1004EE000A1402160214021302FE02180416041451
:1004FE000416041804160216021804160216021820
:10050E00041602160214041B031B01180218021B08
:10051E00031B01180218021602FE02140214021620
:10052E00041804FE0411041304140416041404160F
:10053E0004FF001103110111031201140314011120
:10054E00030D010F030F010F030F01110311010F13
:10055E00030D01110311010F030D01FE030D010F18
:10056E00040D04FE0A0D01110311011103120114F1
:10057E0003140111030D010F030F010F030F0111DE
:10058E000311010F030D01110311010F030D01FEE4
:10059E00030D010F040D04FE0A0D011103110111CB
:1005AE000312011403140111030D010F030F010FA8
:1005BE00030F01110311010F030D01110311010F9F
:1005CE00030D01FE030D010F040D04FE0A110311AC
:1005DE0001110312011403140111030D010F030F76
:1005EE00010F030F01110311010F030D011103116F
:1005FE00010F030D01FE030D010A030C010D04FE94
:10060E00070D011103120114040D030D01FE030D5C
:10061E000116031409FE030D010F0311010F040D42
:10062E00030D01FE030D0112041108FE030D01114D
:10063E0003120114040D030D01FE0316041405FE2E
:10064E00031401160314010D030F19FE070F0111F8
:10065E0003110112031101FE0312051104FE041110
:10066E000414031101160416041603140111030DCC
:10067E00010F04FE040D030D010F030D01110411F2
:10068E000311011103140111040D04FE040A0411D7
:10069E000311010F030F010F030F010F030F0111C0
:1006AE000311011403140111030F040F010D030DA7
:1006BE00010F031101FE030D01FE041603140911AF
:1006CE000311011403110116041603160116031467
:1006DE000111030D010F04FE040D030D010F030D97
:1006EE00011104110311011103180118031905FE5C
:1006FE00040D030D010F0311010F030D010D030D69
:10070E00010D030D010F0311010F030D010D030D5B
:10071E00010F040D04FE0A0D011103140116041439
:10072E000311040F010F030D010F030F010F03112E
:10073E00040F040D01110311011103110114041111
:10074E00040D04FE070A010D0311010F030D010D27
:10075E00030D040D010F0311010F030D010F030D06
:10076E00040D010D031401190319011403140116CC
:10077E00041404FE0A0A030C010D040D030D010DF1
:10078E00030D0111040F040D040F040D04FE0A08DD
:10079E000308010C030C010D030D010D030D010DDA
:1007AE00030D0111040F040D040F040D04FE0A11B4
:1007BE000414031101160416041603140111030D7B
:1007CE00010F04FE040D030D010F030D01110411A1
:1007DE000311011103140111040D04FE040A030A8E
:1007EE0001110311010F030F010F030F010F030F6F
:1007FE0001110311011403140111030F040F010D54
:10080E00030D010F031101FE030D01FE0416031566
:10081E000911031101140311011604160316011612
:10082E0003140111030D0111040F040D030D010F2B
:10083E00030D011103110111031101110318011808
:10084E00031905FE040D030D010F0311010F030D16
:10085E00010D0CFE081103110114031101160316EC
:10086E0001160316011603140111030D010F04FEE8
:10087E00040D030D010F030D0111031101110311DD
:10088E0001140411040D04FE040A04110311010FD6
:10089E00030F010F030F010F030F011103110114B9
:1008AE0003140111030F040F010D030D010F0311AA
:1008BE0001FE030D01FE04160314091103110114A8
:1008CE000311011604160316011603140111030D6C
:1008DE00010F04FE040D030D010F030D0111031191
:1008EE0001110311011103180118031905FE040D5E
:1008FE00030D010F0311010F030D010D030D010D6A
:10090E00030D010F0311010F030D010D030D010F57
:10091E00040D04FE0A0D030D010F0311010F030D4B
:10092E00010D030D010D030D010F0311010F030D39
:10093E00010D030D010F040D04FE0A0D010F030D31
:09094E0009FE0A1204140BFF005B
:03000B00021E18BA
:0E1E1800C0E0E545F58C85468AB2A5D0E032E3
:03001B000219F0D7
:1019F000C0E0C0D0758DFC758B67E54AB4011C054D
:101A000053E55370020552054BE54BC39404400B5C
:101A1000754B000549E54970020548E551455060A0
:0E1A200008E551155170021550D0D0D0E032BB
:101AE000A2AFE433FDC2AFEFC3942540028022EFE2
:101AF00025E0241EF582E43400F583E493F5457473
:101B00000193F546E545F58C85468AE5567002D287
:071B10008CED24FF92AF22CF
:0F1E0900A2AFE433C2AFC28CC2A524FF92AF22B6
:101229008E0E8F0FE54D454C606DC3E54F94FEE57D
:101239004E94FF5062E54D254FF582E54C354EF54C
:1012490083E493FFB4FF02804EA907E54F2401FF11
:10125900E4354EFEE54D2FF582E54C3EF583E493EA
:10126900FF7402254FF54FE4354EF54E7E00AD442F
:101279007C00120DFFAB07AA06B9FE15121E0975EF
:1012890047018A548B55E50F2BF543E50E3AF54294
:1012990022E9C39425400AE4F54AF554F555021E9E
:1012A90009EAC4F854F0C868F554EBC4540F48F57A
:1012B90055C39408E55494005006755400755508B3
:1012C900EAC313FEEB13FFD3E5559FE5549E400493
:1012D9008E548F55AF01121AE0E4F547E50F2BFF45
:1012E900E50E3AFEC3EF9555F543EE9554F54222C6
:101A6B00758911C28CC2A5758DFC758B67D28EE4FE
:101A7B00F552F553F542F543F550F551F548F54957
:101A8B00F54BF55690004E93F545740193F546D200
:0D1A9B00A9D2ABC2AFE4FF12191ED2AF22D8
:10191E00A2AFE433FEC2AFEFC394024002E4FFEF86
:10192E0070067C007D7D80047C057D418C4C8D4D48
:10193E00EF90006893F544E4F54EF54FF547F552F8
:10194E00F553F542F543F548F549F54BF556F54A8D
:09195E00121E09EE24FF92AF22D3
:03000700AF4A22DB
:031E7100AF442259
:101DA000A2AFE433C2AFAB49AA4824FF92AFAE0260
:031DB000AF03225C
:101DB300A2AFE433C2AFAB53AA5224FF92AFAE0239
:031DC300AF032249
:101DC600C3EF9DEE9CC36480948040037F01227F15
:021DD6000022E9
:101CB900A2AFE433FFC2AF755601E54AB40108E5A6
:0D1CC900477004C28CC2A5EF24FF92AF2229
:101C7800A2AFE433FDC2AFE4F556E54AB4010DE581
:101C8800477009E545F58C85468AD28CED24FF928C
:021C9800AF2279
:0D000E00EF70057E007F6E227E007F732262
:1018CF00E54A64016048A2AFE433F50CC2AFE4F51A
:1018DF004EF54FF547F552F553F542F543F548F5FB
:1018EF0049F54B754A01E54D454C6011E54D254FC6
:1018FF00F582E54C354EF583E493B4FF05E4F54AE4
:0F190F008006E4FFFE121229E50C24FF92AF229E
:101D4300A2AFE433FFC2AFE4F54AF542F543F556DB
:091D5300121E09EF24FF92AF22D9
:10176300E54A64017062121DB38E0B8F0CE4F50D14
:10177300AD43AC42AF0CAE0B121DC6EF604AE5475A
:101783007014121E09754701E5552543F543E554C9
:101793003542F5428029E54D454C6011E54D254F15
:1017A300F582E54C354EF583E493B4FF06E4F54A40
:1017B300021E09AF43AE42121229E54AB4010905DC
:0917C3000DE50DC3940840A822B5
:03000300015700A2
:0C1E3400D2B0D2B1D2B2D2B3E4F5572242
:101D5C00E4FF20B0010F20B10343070220B203437C
:091D6C00070420B3034307082219
:101B1700E4F50FA2009202F50EE50EC3950D5015E0
:101B2700121E5EA200300201B35006050FA20092FA
:101B370002050E80E4E50F700BA200300101B340EF
:071B4700037F01227F002251
:101BB6008F0CE50CB40104A2B08014E50CB4020449
:101BC600A2B1800BE50CB40404A2B38002A2B292C7
:0A1BD60000C201750D1E121B17223C
:101BE0008F0CE50CB40104A2B08014E50CB402041F
:101BF000A2B1800BE50CB40404A2B38002A2B2929D
:0A1C000000D201750D14121B17220B
:101D0E0020B0037F012220B1037F022220B2037F85
:0B1D1E00032220B3037F04227F002279
:1019AE00121D0E8F0BE50B7011E557600AFF121B0F
:1019BE00E0EF6003E4F5577F0022E50BB557037F98
:1019CE0000227F0A121E26121D0EEF650B60037F8A
:1019DE000022AF0B121BB6EF7002FF22850B57AF22
:0219EE000B22CA
:061DD800C2A58F80D2A716
:0C1DDE007F0CAE071FEE60030080F722B0
:0A1E4000C2A6121DD8C2A7021DDEC3
:0A1E4A00D2A6121DD8C2A7021DDEA9
:101C0A007F38121E407F01121E267F0C121E407F53
:101C1A0001121E267F06121E407F01121E267F0118
:081C2A00121E407F02021E267B
:101DEA00EDBF0103148002243F4480FF121E4022EB
:0A1E5400AC03121DEAAF04021E4A9F
:101C9A008A0C8B0D121DEAE4FDE50D2DF582E43563
:0F1CAA000CF583E493FF6006121E4A0D80EB22B7
:101CD600EF540733333354F84440FF121E40E4FCFC
:0D1CE600ED2CF8E6FF121E4A0CBC08F4229B
:0A1E5E00007F027EC7DEFEDFFC22DB
:0E1E2600AD07AF051DEF6005121E5E80F522B0
:030000000214DF08
:0C14DF00787FE4F6D8FD7581E402152644
:100DFF00EF8DF0A4A8F0CF8CF0A428CE8DF0A42E08
:020E0F00FE22C1
:100E1100BC000BBE0029EF8DF084FFADF022E4CCC5
:100E2100F875F008EF2FFFEE33FEEC33FCEE9DEC8E
:100E3100984005FCEE9DFE0FD5F0E9E4CEFD22EDD4
:100E4100F8F5F0EE8420D21CFEADF075F008EF2F1E
:100E5100FFED33FD4007985006D5F0F222C398FD0F
:050E61000FD5F0EA22AC
:100E6600E88FF0A4CC8BF0A42CFCE98EF0A42CFC2B
:100E76008AF0EDA42CFCEA8EF0A4CDA8F08BF0A4A9
:100E86002DCC3825F0FDE98FF0A42CCD35F0FCEB08
:100E96008EF0A4FEA9F0EB8FF0A4CFC5F02ECD39CD
:0F0EA600FEE43CFCEAA42DCE35F0FDE43CFC223A
:100EB50075F008758200EF2FFFEE33FECD33CDCCF4
:100EC50033CCC58233C5829BED9AEC99E582984077
:100ED5000CF582EE9BFEED9AFDEC99FC0FD5F0D654
:100EE500E4CEFBE4CDFAE4CCF9A88222B800C1B97E
:100EF5000059BA002DEC8BF084CFCECDFCE5F0CBBC
:100F0500F97818EF2FFFEE33FEED33FDEC33FCEBF4
:100F150033FB10D703994004EB99FB0FD8E5E4F9AF
:100F2500FA227818EF2FFFEE33FEED33FDEC33FC9C
:100F3500C933C910D7059BE99A4007EC9BFCE99A90
:100F4500F90FD8E0E4C9FAE4CCFB2275F010EF2FD5
:100F5500FFEE33FEED33FDCC33CCC833C810D707D5
:100F65009BEC9AE899400AED9BFDEC9AFCE899F810
:0E0F75000FD5F0DAE4CDFBE4CCFAE4C8F922A3
:100F8300EB9FF5F0EA9E42F0E99D42F0E89C45F0C4
:010F9300223B
:0C0F9400A42582F582E5F03583F5832268
:100FA000EC8EF0A4CCC5F0CCCDF8EFA4CEC5F02DDE
:100FB000FDE43CFCE8A42EC8C5F03DFDE43CFCEF9C
:0D0FC000A4FFE5F028FEE43DFDE43CFC222A
:1014EB000215F4E493A3F8E493A34003F68001F20E
:1014FB0008DFF48029E493A3F85407240CC8C33302
:10150B00C4540F4420C8834004F456800146F6DFD0
:10151B00E4800B0102040810204080900003E47E5D
:10152B00019360BCA3FF543F30E509541FFEE493C5
:10153B00A360010ECF54C025E060A840B8E493A38C
:10154B00FAE493A3F8E493A3C8C582C8CAC583CAB7
:10155B00F0A3C8C582C8CAC583CADFE9DEE780BE6F
:0100060000F9
:00000001FF
